:100000000C94AD010C94D5010C94D5010C94C90A43
:100010000C94C90A0C94C90A0C94D5010C94D5010E
:100020000C94D5010C94D5010C94D5010C94D501F8
:100030000C94D5010C94D5010C94D5010C94D501E8
:100040000C947F0A0C94D5010C944D0A0C94270A49
:100050000C94D5010C94D5010C94D5010C94D501C8
:100060000C94D5010C94D501084AD73B3BCE016EC8
:1000700084BCBFFDC12F3D6C74319ABD56833DDAFF
:100080003D00C77F11BED9E4BB4C3E916BAAAABE0E
:10009000000000803F05A84CCDB2D44EB93836A937
:1000A000020C50B9918688083CA6AAAA2ABE000074
:1000B00000803F0000000008000201000003040768
:1000C00000000000000000002D2D2D2D2D2D2D2DC8
:1000D0002D2D2D2D2D2D2D2D2D2D2D2D2D2D2D2D50
:1000E0002D2D2D2D2D2D2D2D2D2D2D2D2D2D2D2D40
:1000F0002D2D2D2D2D2D2D2D2D2D2D2D2D2D2D2D30
:100100002D2D2D2D2D2D2D2D2D2D2D2D2D2D2D2D1F
:100110002D2D2D2D2D2D2D2D2D2D2D2D2D2D2D2D0F
:100120002D2D2D2D2D2D2D2D2D2D2D2D2D2D2D2DFF
:100130002D2D2D2D2D2D2D2D2D2D2D2D2D2D2D2DEF
:100140002D2D2D2D2D2D2D2D2D2D2D2D2D2D2D2DDF
:1001500000202020202020202020202028646567E7
:1001600029202020202020286465672920202020A5
:1001700020202041676520202020202020202020D2
:1001800020202020202020202020202041676520C2
:1001900020286D29202020202D2D2D2066726F6DA6
:1001A00020475053202D2D2D2D20202D2D2D2D205D
:1001B000746F204C6F6E646F6E20202D2D2D2D20BE
:1001C000205258202020205258202020202020205B
:1001D000204661696C00536174732048444F50207D
:1001E000204C617469747564652020204C6F6E67C3
:1001F0006974756465202020466978202044617404
:10020000652020202020202054696D65202020209A
:10021000204461746520416C7420202020436F7558
:100220007273652053706565642043617264202099
:1002300044697374616E636520436F7572736520E2
:1002400043617264202043686172732053656E7449
:10025000656E63657320436865636B73756D0062DB
:1002600079204D696B616C2048617274005465732C
:1002700074696E672054696E794750532B2B206C3C
:1002800069627261727920762E2000416E20657855
:1002900074656E73697665206578616D706C652034
:1002A0006F66206D616E7920696E74657265737416
:1002B000696E672054696E794750532B2B20666511
:1002C0006174757265730046756C6C4578616D700C
:1002D0006C652E696E6F002A2A2A2A2A2A2A2A2069
:1002E000002A2A2A2A2A2A2A2A2A2A20004E6F206D
:1002F0004750532064617461207265636569766557
:10030000643A20636865636B20776972696E670081
:100310000000000023002600290000000000240047
:1003200027002A0000000000250028002B000404FC
:10033000040404040404020202020202030303038D
:100340000303010204081020408001020408102069
:100350000102040810208D0BCC1111241FBECFEF19
:10036000D8E0DEBFCDBF11E0A0E0B1E0EAE9F2E302
:1003700002C005900D92AE3DB107D9F723E0AEED76
:10038000B1E001C01D92A439B207E1F711E0CCEA57
:10039000D1E004C02197FE010E940D16CB3AD1078F
:1003A000C9F70E943D0D0C9440190C940000CF92A7
:1003B000DF92EF92FF921092E8026091EB0270914F
:1003C000EC028091ED029091EE020E94B51328E2BA
:1003D0003BE64EE65EE40E940D136B017C016091EA
:1003E000E9027091EA0290E080E00E94B5139B015F
:1003F000AC01C701B6010E9425122091EF02211124
:100400009058FF90EF90DF90CF900895CF92DF92B9
:10041000EF92FF921092E8026091F2027091F30263
:100420008091F4029091F5020E94B51328E23BE618
:100430004EE65EE40E940D136B017C016091F002B8
:100440007091F10290E080E00E94B5139B01AC0135
:10045000C701B6010E9425122091F6022111905881
:10046000FF90EF90DF90CF900895AF92BF92CF9220
:10047000DF92EF92FF920F931F93CF93DF936C0164
:100480007B018B01040F151FEB015E01AE18BF0845
:10049000C017D10759F06991D601ED91FC910190F7
:1004A000F081E02DC6010995892B79F7C501DF910F
:1004B000CF911F910F91FF90EF90DF90CF90BF9061
:1004C000AF900895FC01538D448D252F30E0842F8B
:1004D00090E0821B930B541710F0CF96089501976C
:1004E0000895FC01918D828D981761F0A28DAE0F59
:1004F000BF2FB11D5D968C91928D9F5F9F73928FE0
:1005000090E008958FEF9FEF0895FC01918D828D0B
:10051000981731F0828DE80FF11D858D90E00895D8
:100520008FEF9FEF0895FC01918D228D892F90E030
:10053000805C9F4F821B91098F73992708958BE2EE
:1005400092E00E94930221E0892B09F420E0822F9F
:10055000089580E090E0892B29F00E949F0281118C
:100560000C9400000895FC01A48DA80FB92FB11DB3
:10057000A35ABF4F2C91848D90E001968F739927D9
:10058000848FA689B7892C93A089B1898C918370B7
:1005900080648C93938D848D981306C00288F389B0
:1005A000E02D80818F7D80830895EF92FF920F93DD
:1005B0001F93CF93DF93EC0181E0888F9B8D8C8D0F
:1005C00098131AC0E889F989808185FF15C09FB703
:1005D000F894EE89FF896083E889F98980818370C6
:1005E000806480839FBF81E090E0DF91CF911F9175
:1005F0000F91FF90EF900895F62E0B8D10E00F5F96
:100600001F4F0F731127E02E8C8D8E110CC00FB66B
:1006100007FCFACFE889F989808185FFF5CFCE0103
:100620000E94B302F1CFEB8DEC0FFD2FF11DE35AC9
:10063000FF4FF0829FB7F8940B8FEA89FB89808186
:100640008062CFCF0F931F93CF93DF938C01D0E0C5
:10065000C0E0F801EC0FFD1F6491662341F08BE2CE
:1006600092E00E94D502892B11F02196F2CFCE01A3
:10067000DF91CF911F910F910895682F8BE292E047
:100680000C94D502CF93DF93EC01888D8823B9F0C9
:10069000AA89BB89E889F9898C9185FD03C080818D
:1006A00086FD0DC00FB607FCF7CF8C9185FFF2CF0A
:1006B000808185FFEDCFCE010E94B302E9CFDF91AB
:1006C000CF9108952FB7F89460912302709124027E
:1006D00080912502909126022FBF08952091290232
:1006E00030912A022817390771F4909127028091DE
:1006F0002802981741F0E0912702F0E0E252FE4F05
:10070000808190E008958FEF9FEF08950895EF9214
:10071000FF920F931F93CF93DF93DC015C96ED90D4
:10072000FC905D97E114F10479F481E090E0139678
:100730009C938E93129790E080E0DF91CF911F9170
:100740000F91FF90EF9008955196ED91FC91529783
:1007500050968C915097982F90950FB75E962C914C
:100760005E97122F127021FD6095F894208111235D
:1007700019F1282B2083E7012197F1F728E0462F74
:1007800050E0308160FF1AC0382B3083E701219799
:10079000F1F7BA0175956795215089F7112381F01A
:1007A0008081892380830FBF5C968D919C910197F6
:1007B000F1F781E090E0C1CF2923DCCF3923E5CFE9
:1007C0009081892BEFCF2091290230912A0228179E
:1007D000390771F4809128022091270290E0805C13
:1007E0009F4F821B910960E470E00E94D715089525
:1007F00090E080E008952091290230912A02281784
:100800003907B9F49091270280912802981789F04E
:10081000E0912702F0E0E252FE4F80812091270212
:1008200030E02F5F3F4F2F7333272093270290E054
:1008300008958FEF9FEF089590E080E00895CF93A3
:10084000DF93EC018A859B85AC85BD858E839F8374
:10085000A887B9870E9462036A837B838C839D8308
:1008600081E089838883DF91CF910895CF93DF93CF
:10087000EC018E819F81A885B9858A839B83AC8397
:10088000BD830E9462036A877B878C879D8781E096
:1008900089838883DF91CF910895FC010190002026
:1008A000E9F73197AF01481B590BBC018BE292E08D
:1008B0000C943502CF93DF930E942203EC0184E66F
:1008C00091E00E944D048C0F9D1FDF91CF91089500
:1008D0008F929F92AF92BF920F931F93CF93DF930C
:1008E000CDB7DEB7A1970FB6F894DEBF0FBECDBF70
:1008F00019A2423008F44AE08E010F5D1F4F842E8A
:10090000912CB12CA12CA50194010E94EB15E62F8E
:10091000B901CA01EA30F4F4E05DD801EE938D012B
:10092000232B242B252B79F790E080E0109719F0EA
:10093000CD010E944D04A1960FB6F894DEBF0FBE04
:10094000CDBFDF91CF911F910F91BF90AF909F903E
:100950008F900895E95CE1CF2F923F924F925F9282
:100960006F927F928F929F92AF92BF92CF92DF92BF
:10097000EF92FF920F931F93CF93DF93D82FC92F3E
:100980008B010E94E81124E630E040E050E00E9434
:10099000EB1549019B01AC0160E876E988E990E03C
:1009A0000E94C7156B017C01F80191828082ED2FB6
:1009B000FC2F2191822F022E000C990BC0970A97D1
:1009C000C0F32E3239F51F0180E8882E86E9982E73
:1009D00088E9A82EB12C9AE0492E512C612C712C5B
:1009E000F101C1911F010C2E000CDD0BE097CA3004
:1009F000D10580F4C501B401A30192010E94EB1559
:100A000049015A01DE010E941E16C60ED71EE81EBD
:100A1000F91EE6CFA5E0B0E0A70196010E941316EB
:100A20006F5F7F4F8F4F9F4F23E030E040E050E0FB
:100A30000E94EB15F8012283338344835583168289
:100A4000DF91CF911F910F91FF90EF90DF90CF90AA
:100A5000BF90AF909F908F907F906F905F904F90DE
:100A60003F902F9008951F93CF93DF93EC0118814F
:100A70001D3209F42196CE010E94E8119B01AC01C0
:100A8000A4E6B0E00E941316AB01BC01FE0129915F
:100A9000822F022E000C990BC0970A97B8F32E32C2
:100AA00031F58181082E000C990BC0978A30910591
:100AB000F0F4AAE0A89F9001A99F300D1124C9016C
:100AC000330FAA0BBB0B480F591F6A1F7B1F828174
:100AD000082E000C990BC0978A30910540F4092E1E
:100AE000000CAA0BBB0B480F591F6A1F7B1F1D323E
:100AF00039F470956095509541955F4F6F4F7F4FDA
:100B0000CB01BA01DF91CF911F9108956F927F922F
:100B10008F929F92AF92BF92CF92DF92EF92FF920D
:100B20000F931F93CF93DF934B015C010E946203ED
:100B30006B017C0182E0782ED1E088EC92E00E948B
:100B4000E303892B09F4C0C288EC92E00E94FB0306
:100B5000C82F8091840390918503A0918603B09162
:100B600087030196A11DB11D809384039093850393
:100B7000A0938603B0938703C43209F484C2E09142
:100B80007E03C5320CF0BDC0CA3019F0CD3009F07B
:100B900087C2EF3008F032C1F0E0E359FC4F108219
:100BA00080916C03882309F437C120916D03822F53
:100BB000022E000C990B3FEB320F363008F0ADC01F
:100BC000C7978295807F90916E03292F092E000C84
:100BD000330B4FEB490F463008F0A7C027533109BC
:100BE000820F90916B038913F6C0809190039091CE
:100BF0009103A0919203B09193030196A11DB11DA1
:100C00008093900390939103A0939203B0939303E6
:100C100080917F03882399F08091880390918903C4
:100C2000A0918A03B0918B030196A11DB11D809301
:100C3000880390938903A0938A03B0938B03109148
:100C40007C03112309F47AC01130A1F589E093E007
:100C50000E94360487E193E00E94360480917F036E
:100C6000882341F187E0E7EFF2E0A9EEB2E00190DE
:100C70000D928A95E1F787E0EEEFF2E0A0EFB2E0A7
:100C800001900D928A95E1F70E946203609305033B
:100C90007093060380930703909308031093E80270
:100CA0001093E70285E293E00E941F0483E393E040
:100CB0000E941F0400918203109183030115110506
:100CC00009F49CC0E0918203F091830366A177A1AF
:100CD000F80186A197A10E944916892B09F08EC0C0
:100CE000B801C80140960E9452160E946203F801A2
:100CF00060A371A382A393A3D5A3D4A302A513A534
:100D0000DDCFCA3209F445CFCC3209F0C9C1809198
:100D10006B038C2780936B033CCF2156263018F44D
:100D2000875591094ECFC0974CCF9156963018F405
:100D30002755310955CF2053310952CF87E193E030
:100D40000E94360480917F03882321F187E0E7EF3A
:100D5000F2E0A9EEB2E001900D928A95E1F787E00A
:100D6000EEEFF2E0A0EFB2E001900D928A95E1F78C
:100D70000E94620360930503709306038093070348
:100D800090930803D093E802D093E70281E493E0C4
:100D90000E941F048091590390915A03A0915B0314
:100DA000B0915C038093550390935603A09357032F
:100DB000B09358030E9462036093510370935203EF
:100DC0008093530390935403D0935003D0934F03D5
:100DD0008DE593E06DCF80918C0390918D03A09170
:100DE0008E03B0918F030196A11DB11D80938C03DA
:100DF00090938D03A0938E03B0938F0380917D0316
:100E00008F5F80937D0310927E0381E0CA3209F0E8
:100E100080E080936C0391CE90917D03911144C04A
:100E200067E671E08DE693E00E944916892B41F058
:100E30006DE671E08DE693E00E944916892BF1F48E
:100E4000D0937C03809180039091810390938303DE
:100E50008093820300918203109183030115110591
:100E600069F26DE673E0F80186A197A10E94491628
:100E700097FF45C1F80182A593A5E8CF63E771E02C
:100E80008DE693E00E944916892B41F069E771E0F5
:100E90008DE693E00E944916892B19F410927C0389
:100EA000D1CF70927C03CECFE0917C03E23009F485
:100EB00048C080916D03882309F443C020E2E29F7B
:100EC000F0011124E92B3197E932F10508F039C01E
:100ED000E459F84F0C940D169507D607DD07E40783
:100EE000E70715081C0829083608A107A107A1076C
:100EF000A107A107A107A107A107A107A107A107B2
:100F0000A107A107A107A107A107A107A107A107A1
:100F1000A107A107A107A1079507D007D607DD07FD
:100F2000E407E707EE07FB0708088DE693E00E9459
:100F3000330560931D0370931E0380931F039093EA
:100F40002003009182031091830360907D030115BB
:100F5000110509F453CFE0918203F091830366A158
:100F600077A1F80186A197A10E944916892B09F063
:100F700045CFF80120A531A5862D90E08217930773
:100F80000CF43CCF2817390739F440E150E06DE606
:100F900073E0C8010E945916F80102A513A5D5CF28
:100FA00091E0813409F445C090E043C067EF72E0FE
:100FB0008DE693E00E94AC04C4CF91E0833509F044
:100FC00090E09093FD02BDCF6EEF72E0F1CF91E023
:100FD000873509F090E090930403B3CF8DE693E05A
:100FE0000E94330560932F03709330038093310385
:100FF00090933203A6CF8DE693E00E943305609371
:101000003D0370933E0380933F039093400399CF39
:101010008DE693E00E94E81160930F037093100334
:1010200080931103909312038CCF91E081330CF4E1
:10103000BBCF90937F0385CF8DE693E00E94E811AC
:101040006093590370935A0380935B0390935C03FE
:1010500078CF8DE693E00E94330560936703709329
:1010600068038093690390936A036BCF8DE693E0E6
:101070000E94330560934B0370934C0380934D03A0
:1010800090934E035ECF10927E0310927D031092D8
:101090006B0370927C0310926C0310927F034DCD12
:1010A000EE3040F481E08E0F80937E03F0E0E35950
:1010B000FC4FC08380916C0381113FCD80916B0305
:1010C000C827C0936B0339CD0E9462036C197D0958
:1010D0008E099F09681579058A059B0508F42DCDB1
:1010E000DF91CF911F910F91FF90EF90DF90CF9004
:1010F000BF90AF909F908F907F906F900895892BB5
:1011000009F47CCE109283031092820377CEEF9283
:10111000FF920F931F93CF93DF937C01FC0101900B
:101120000020E9F731978F01081B190BD0E0C0E0D0
:1011300080E2C017D10724F4F701EC0FFD1F808176
:101140000E943D032196C630D10591F760E070E022
:10115000CB01DF91CF911F910F91FF90EF900C94F5
:101160008605EF92FF920F931F93CF93DF93CDB736
:10117000DEB7A0970FB6F894DEBF0FBECDBF7901E2
:1011800022E1E0E0F1E08E010F5F1F4FD8010190F6
:101190000D922A95E1F7FE0173962EE0DF011D9274
:1011A0002A95E9F7442389F09F938F937F936F9358
:1011B0008FE791E09F938F931F930F930E94681680
:1011C0000FB6F894DEBF0FBECDBFF801EE0DFF1DC8
:1011D0001082F80101900020E9F7319780E29F0129
:1011E000201B310B2E153F0514F48193F8CFFE011F
:1011F000EE0DFF1D80E28083C8010E944D0460E077
:1012000070E0CB010E948605A0960FB6F894DEBF71
:101210000FBECDBFDF91CF911F910F91FF90EF9047
:1012200008953F924F925F926F927F928F929F921A
:10123000AF92BF92CF92DF92EF92FF920F931F93E4
:10124000CF93DF936B017C01E90141111FC021970E
:1012500021F08AE20E943D03FACF80E20E943D0322
:1012600060E070E0CB01DF91CF911F910F91FF9073
:10127000EF90DF90CF90BF90AF909F908F907F9036
:101280006F905F904F903F900C948605AC019B014E
:101290000E9499158823D1F183E891E00E944D04C2
:1012A000C701B6010E947F135B0177FF04C0AA2427
:1012B000BB24A61AB70A20E030E0A901C701B60195
:1012C0000E94031387FDB7C081E090E0080F191F4B
:1012D00088EEA81683E0B8060CF0B0C084E6A81625
:1012E000B1040CF0AEC08AE0A816B1040CF0ACC09A
:1012F00081E090E0080F191F0C171D070CF0B0CF0C
:1013000080E20E943D030F5F1F4FF6CF4601570159
:10131000E894B7F82FEF3FEF4FE75FE7C501B4015F
:101320000E94991581110DC02FEF3FEF4FE75FE746
:10133000C501B4010E94031318161CF487E891E05C
:10134000ADCF2FEF3FEF4FE75FE4C701B6010E943B
:10135000CD1418161CF48BE891E0A0CF2FEF3FEFCF
:101360004FE75FECC701B6010E94031387FDF3CF7F
:1013700020E030E0A901C701B6010E940313460135
:10138000570187FF07C08DE20E943D03B7FAB09472
:10139000B7F8B094302E60E070E080E09FE3712CED
:1013A00020E030E040E251E40E940D137394731486
:1013B000B8F3A50194010E9425124B015C010E9423
:1013C00086132B013C010E94B5139B01AC01C501A2
:1013D000B4010E9424124B015C014AE0C301B20136
:1013E0000E9468048EE20E943D033A948FEF381603
:1013F00009F456CF20E030E040E251E4C501B401E9
:101400000E94DA142B013C010E9486134B01B12C7F
:10141000A12C4AE0C501B4010E946804C501B401D1
:101420000E94B5139B01AC01C301B2010E942412BA
:101430004B015C01DACF82E090E048CF84E090E09D
:1014400059CF83E090E056CF82E090E053CF1F92D7
:101450000F920FB60F9211242F933F934F935F93E8
:101460006F937F938F939F93AF93BF93EF93FF936C
:101470008BE292E00E94B302FF91EF91BF91AF9196
:101480009F918F917F916F915F914F913F912F919C
:101490000F900FBE0F901F9018951F920F920FB6CE
:1014A0000F9211242F938F939F93EF93FF93E091CB
:1014B0003B02F0913C028081E0914102F0914202B6
:1014C00082FD1BC09081809144028F5F8F732091B9
:1014D0004502821741F0E0914402F0E0E55DFD4FE6
:1014E000958F80934402FF91EF919F918F912F915F
:1014F0000F900FBE0F901F9018958081F4CF1F9210
:101500000F920FB60F9211242F933F938F939F93B7
:10151000AF93BF938091230290912402A091250262
:10152000B09126023091220223E0230F2D3758F587
:101530000196A11DB11D2093220280932302909356
:101540002402A0932502B093260280911E0290915E
:101550001F02A0912002B09121020196A11DB11D90
:1015600080931E0290931F02A0932002B093210249
:10157000BF91AF919F918F913F912F910F900FBE8F
:101580000F901F90189526E8230F0296A11DB11DFC
:10159000D2CF1F920F920FB60F9211242F933F9329
:1015A0004F935F936F937F938F939F93AF93BF936B
:1015B000EF93FF93E0912902F0912A02309749F0CE
:1015C000A685B7858585968D91FF14C09C9189234A
:1015D000A1F4FF91EF91BF91AF919F918F917F9176
:1015E0006F915F914F913F912F910F900FBE0F9090
:1015F0001F9018959C91892361F7A389B4899C91C8
:101600008589809589238C93868997890197F1F73D
:10161000608D718DA685B785558538E020E0CB01BA
:101620000197F1F7822F90E095958795282F4C919F
:10163000452309F02068315091F7868D81FD209572
:101640008091280290E001968F73992730912702AC
:10165000381799F0A0912802B0E0A252BE4F2C9307
:1016600080932802828D938D0197F1F7A389B48925
:101670008C919589892B8C93ACCF868D8160868FD8
:10168000F1CF90E0FC01EC54FF4F2491FC01EE5BA4
:10169000FC4F3491FC01E25DFC4FE491EE23C9F074
:1016A000222339F0233001F1A8F4213019F122303E
:1016B00029F1F0E0EE0FFF1FEC5DFC4FA591B49116
:1016C0008FB7F894EC91611126C030953E233C937E
:1016D0008FBF08952730A9F02830C9F0243049F78A
:1016E000809180008F7D03C0809180008F778093F0
:1016F0008000DFCF84B58F7784BDDBCF84B58F7D4D
:10170000FBCF8091B0008F778093B000D2CF8091D3
:10171000B0008F7DF9CF3E2BDACF0F931F93CF937D
:10172000DF9310922E0210922D0288EE93E0A0E03B
:10173000B0E080932F0290933002A0933102B093D7
:10174000320224E431E030932C0220932B0225EC6A
:1017500030E0309338022093370224EC30E03093AD
:101760003A022093390220EC30E030933C0220937F
:101770003B0221EC30E030933E0220933D0222EC0C
:1017800030E03093400220933F0226EC30E030936B
:10179000420220934102109244021092450210929C
:1017A0004602109247021092E7021092E80210924D
:1017B000EA021092E9021092EB021092EC021092EF
:1017C000ED021092EE021092EF021092F1021092CE
:1017D000F0021092F2021092F3021092F4021092B0
:1017E000F5021092F6021092F8021092F70210928F
:1017F000F9021092FA021092FB021092FC0210926F
:10180000FD021092FF021092FE021092000310924D
:10181000010310920203109203031092040310922A
:10182000090310920A0310920B0310920C031092FA
:101830000D0310920E0310921703109218031092CA
:10184000190310921A0310921B0310921C0310929A
:1018500025031092260310922B0310922C03109252
:101860002D0310922E031092330310923403109222
:10187000390310923A0310923B0310923C031092EA
:1018800041031092420310924703109248031092B2
:10189000490310924A0310924F0310925003109282
:1018A000550310925603109257031092580310924A
:1018B0005D0310925E031092630310926403109212
:1018C00065031092660310926B0310926C0322E082
:1018D00020937C0310927D0310927E0310927F036D
:1018E000109281031092800310928303109282035E
:1018F000109284031092850310928603109287033E
:10190000109288031092890310928A0310928B031D
:1019100010928C0310928D0310928E0310928F03FD
:1019200010929003109291031092920310929303DD
:1019300010926D031092CB021092CA028093CC02D7
:101940009093CD02A093CE02B093CF0286E591E0B2
:101950009093C9028093C8021092DF021092DE02B7
:101960001092E1021092E0021092E3021092E20261
:101970001092E5021092E4026091E6026E7F6D7FA4
:101980006093E6026695617081E0682783E00E94BB
:10199000410B45E453E0FA01649181E393E0FC01DB
:1019A0002491222399F030E0220F331FF901E65EE3
:1019B000FC4FA591B491F901EC5DFC4F2591349158
:1019C0002FB7F8943C91632B6C932FBFFA0144918D
:1019D0004093D802FC018491E82FF0E0EE0FFF1F46
:1019E000EC5DFC4F859194919093DA028093D9023B
:1019F00006E413E0F8012491C2E3D3E0FE018491F0
:101A00008823C9F090E0880F991FFC01E65EFC4F27
:101A1000A591B491FC01EC5DFC4F459154913FB709
:101A2000F8949C91822F809598239C93FA01908141
:101A3000892380833FBF8091E60281FD04C061E07D
:101A400084E00E94410B84E08093D402F801049169
:101A50000093D502FE01C491EC2FF0E0EE0FFF1FC2
:101A6000E05FFC4F859194919093D7028093D602CA
:101A7000DF91CF911F910F910895CF93DF93CDB751
:101A8000DEB7AC970FB6F894DEBF0FBECDBF78942B
:101A900084B5826084BD84B5816084BD85B5826073
:101AA00085BD85B5816085BD80916E008160809324
:101AB0006E0010928100809181008260809381008D
:101AC000809181008160809381008091800081609D
:101AD000809380008091B10084608093B1008091F8
:101AE000B00081608093B00080917A008460809320
:101AF0007A0080917A00826080937A0080917A00E7
:101B0000816080937A0080917A00806880937A0067
:101B10001092C100E0913B02F0913C0282E0808390
:101B2000E0913702F09138021082E0913902F09191
:101B30003A0280E1808310924302E0913F02F091EB
:101B4000400286E08083E0913D02F0913E02808178
:101B500080618083E0913D02F0913E028081886047
:101B60008083E0913D02F0913E0280818068808315
:101B7000E0913D02F0913E0280818F7D8083109242
:101B8000E3021092E2021092E1021092E00210923F
:101B9000DF021092DE028EE393E09093E5028093E1
:101BA000E4029091D402963108F047C02DE831E06C
:101BB0003093DF022093DE022CE333E03093E10226
:101BC0002093E00224E632E03093E3022093E20225
:101BD0002091680084E0983048F031E09E3008F4AD
:101BE00030E081E001C0880F3A95EAF7822B8093BC
:101BF00068002DE630E0983050F02BE630E09E3063
:101C000030F02CE630E0963110F030E020E03093F8
:101C1000DC022093DB02292F30E0983008F030C33B
:101C200081E001C0880F9A95EAF78093DD028091E8
:101C3000E4029091E5020197F1F78091E202909120
:101C4000E302892B49F1E0912902F0912A0222E076
:101C5000E83CF20709F1309739F0A389B4899C91E7
:101C60008589809589238C938091E6028E7F80936D
:101C7000E602109228021092270288EC92E09093DC
:101C80002A0280932902E091DB02F091DC0280813C
:101C90009091DD02892B808387EC92E00E945A04A8
:101CA0008BE892E00E945A048DE692E00E942203A3
:101CB00084E991E00E944D0484E691E00E944D0485
:101CC0008FE592E00E945A0484E691E00E944D0460
:101CD00086ED91E00E945A0481E591E00E945A0449
:101CE00088EC90E00E945A0424E6422E512C612C8C
:101CF000712CCE0101961C0140914F0310925003AC
:101D00006091550370915603809157039091580349
:101D100025E030E00E94B108F0905D0310925E0370
:101D200060916303709164038091650390916603F1
:101D30000E94B71320E030E048EC52E40E940D13FB
:101D400001E010E026E030E04F2D0E941109F090F4
:101D5000E7020E94D70106E010E02BE030E04F2DB3
:101D60000E941109F090E7020E9406022CE030E088
:101D70004F2D0E941109F090E7026FEF7FEFCB012A
:101D8000FF2071F00E94620380900503909006038B
:101D9000A0900703B0900803681979098A099B0984
:101DA00025E030E04F2D0E94B10880910903811198
:101DB00074C281EE92E00E94220380911703811188
:101DC000A5C287ED92E00E942203F09009036FEF15
:101DD0007FEFCB01FF2071F00E946203809013031C
:101DE00090901403A0901503B09016036819790918
:101DF0008A099B0925E030E04F2D0E94B10860E080
:101E000070E0CB010E948605F090410310924203DE
:101E100060914703709148038091490390914A0370
:101E20000E94B71320E030E048EC52E40E940D130A
:101E300002E010E027E030E04F2D0E941109F09001
:101E40003303109234036091390370913A03809107
:101E50003B0390913C030E94B71320E030E048EC34
:101E600052E40E940D1327E030E04F2D0E9411092B
:101E7000F09025031092260360912B0370912C03A0
:101E800080912D0390912E030E94B71326E53EE02A
:101E90004DEE5FE30E94DA1420E030E048EC52E4BB
:101EA0000E940D1326E030E04F2D0E941109809111
:101EB0003303882309F46DC210923403609139030F
:101EC00070913A0380913B0390913C030E94B713B9
:101ED00020E030E048EC52E40E940D1320E030E0B6
:101EE00044E351E40E94251220E030E044EB51E449
:101EF0000E940D130E947F13CB0160E170E00E94ED
:101F0000D715FC01EE0FFF1FE05EFE4F808191812F
:101F10000E9487080E9406024B015C010E94D701C3
:101F20006B017C0125EF32E143E05EE3C501B401C2
:101F30000E94251225E33AEF4EE85CE30E94DA1492
:101F40004B015C010E94471569A77AA78BA79CA744
:101F5000C501B4010E94081369A37AA38BA39CA3B3
:101F600025E33AEF4EE85CE3C701B6010E94DA14BC
:101F70006B017C010E9447156DA37EA38FA398A7D8
:101F8000C701B6010E9408136B017C012CEC3EE5F1
:101F900048E45FE30E94DA144B015C0127ED35E56C
:101FA0004FE15FE36DA17EA18FA198A50E94DA1495
:101FB00029A13AA14BA15CA10E94DA149B01AC01BA
:101FC000C501B4010E9424129B01AC010E94DA14E5
:101FD0004B015C0127ED35E54FE15FE369A57AA58B
:101FE0008BA59CA50E94DA149B01AC010E94DA1417
:101FF000A50194010E9425120E9455154B015C0118
:1020000027ED35E54FE15FE3C701B6010E94DA1421
:1020100029A13AA14BA15CA10E94DA146B017C01B9
:102020002CEC3EE548E45FE36DA17EA18FA198A56D
:102030000E94DA149B01AC01C701B6010E9425126F
:102040009B01AC01C501B4010E94A41226E73BE745
:1020500042EC5AE40E94DA140E94861328EE33E020
:1020600040E050E00E94EB15CA01B90129E030E0E0
:102070004091E7020E94B1080E9406024B015C01F8
:102080000E94D7016B017C01A501940165EF72E10B
:1020900083E09EEB0E94241225E33AEF4EE85CE3D6
:1020A0000E94DA144B015C0125E33AEF4EE85CE351
:1020B000C701B6010E94DA146B017C01C501B401AD
:1020C0000E94471569A37AA38BA39CA3C701B601FD
:1020D0000E9447156DA37EA38FA398A7C501B401E5
:1020E0000E9408134B015C0127ED35E54FE15FE3EA
:1020F0006DA17EA18FA198A50E94DA14A50194017B
:102100000E94DA144B015C01C701B6010E9408135A
:102110002CEC3EE548E45FE30E94DA14A50194014B
:102120000E9424126B017C0127ED35E54FE15FE34E
:1021300069A17AA18BA19CA10E94DA14A701960142
:102140000E94A4126B017C0120E030E0A9010E94F2
:10215000031387FF0AC02BED3FE049EC50E4C701B1
:10216000B6010E9425126B017C0121EE3EE245E69C
:1021700052E4C701B6010E94DA146B017C0102E04F
:1021800010E027E030E04091E7020E94110920E0D2
:1021900030E044E351E4C701B6010E94251220E07B
:1021A00030E044EB51E40E940D130E947F13CB01F9
:1021B00060E170E00E94D715FC01EE0FFF1FE05EAA
:1021C000FE4F808191812091E702211102C08FE8AA
:1021D00091E00E948708609184037091850380914B
:1021E00086039091870326E030E041E00E94B10829
:1021F000609188037091890380918A0390918B0389
:102200002AE030E041E00E94B10860918C037091B7
:102210008D0380918E0390918F0329E030E041E09F
:102220000E94B10884E691E00E944D0468EE73E0DC
:1022300080E090E00E9486050E9462036938734145
:102240008105910580F08091840390918503A09190
:102250008603B09187030A97A105B10520F48DEE9E
:1022600092E00E945A0480E090E0892B09F444CD6A
:102270000E949F02882309F43FCD0E9400003CCDBC
:102280009E3040F42850310981E001C0880F2A9522
:10229000EAF7CBCC2E503109F7CF10920A03C09049
:1022A0000B03D0900C03E0900D03F0900E03C701D8
:1022B000B601A30192010E94EB1549015A01605336
:1022C000784F7F936F93C701B60120E137E240E07A
:1022D00050E00E94EB151F922F93C501B401A3019A
:1022E00092010E94EB157F936F938AE991E09F938F
:1022F0008F933F922F920E946816C1010E944D0455
:102300000FB6F894DEBF0FBECDBF57CD10921803A5
:10231000C0901903D0901A03E0901B03F0901C03A7
:10232000C701B601A30192010E94EB15CA01B901D0
:10233000A30192010E94EB157F936F93C701B60131
:1023400020E137E240E050E00E94EB15CA01B901FC
:10235000A30192010E94EB157F936F93C701B60111
:1023600020E432E44FE050E00E94EB151F922F93DF
:102370008AEA91E09F938F933F922F920E94681672
:10238000C1010E944D040FB6F894DEBF0FBECDBF51
:102390001CCD8FE891E0BCCD86E591E09093C90219
:1023A0008093C8028091290290912A02885C924011
:1023B00071F4E091DB02F091DC0290818091DD020A
:1023C00080958923808310922A0210922902089511
:1023D0001F93FC0199278827BC01E89411911032C2
:1023E000E9F3193010F01E30C8F31B3251F01D32E2
:1023F00049F4689406C00E940F12610F711D811D7F
:10240000911D119110531A30B0F33EF490958095C0
:10241000709561957F4F8F4F9F4F1F910895592F52
:10242000482F372F262F660F771F881F991F660F9B
:10243000771F881F991F620F731F841F951F660FD8
:10244000771F881F991F08955058BB27AA270E94FD
:102450003C120C947F140E94461438F00E944D14D4
:1024600020F039F49F3F19F426F40C941C140EF458
:10247000E095E7FB0C941614E92F0E94A41458F37E
:10248000BA17620773078407950720F079F4A6F559
:102490000C94C6140EF4E0950B2EBA2FA02D0B0150
:1024A000B90190010C01CA01A0011124FF27591B99
:1024B00099F0593F50F4503E68F11A16F040A22F9F
:1024C000232F342F4427585FF3CF46953795279510
:1024D000A795F0405395C9F77EF41F16BA0B620B0F
:1024E000730B840BBAF09150A1F0FF0FBB1F661F56
:1024F000771F881FC2F70EC0BA0F621F731F841F99
:1025000048F4879577956795B795F7959E3F08F0BE
:10251000B0CF9395880F08F09927EE0F9795879580
:1025200008950E94461460F080E891E009F49EEF5F
:102530000E944D1428F040E851E071F45EEF0CC0A9
:102540000C941C140C94C614E92FE0780E94A41477
:1025500040F3092E052AB1F3261737074807590714
:1025600038F00E2E07F8E02569F0E025E0640AC097
:10257000EF6307F8009407FADB01B9019D01DC0164
:10258000CA01AD01EF930E9424130E947F140E94A0
:10259000D4125F91552339F02BED3FE049E450FD13
:1025A00049EC0C9425120895DF93DD27B92FBF77EE
:1025B00040E85FE31616170648075B0718F4D92FA3
:1025C0000E94D2149F938F937F936F930E949515CF
:1025D000E8E6F0E00E941F140E947F142F913F91C3
:1025E0004F915F910E94ED14DD2351F09058A2EAC3
:1025F0002AED3FE049EC5FE3D0785D270E943C1272
:10260000DF910C947F140E94F21308F481E0089586
:102610000E945614E3950C9490140E9421130C947C
:102620007F140E944D1458F00E94461440F029F483
:102630005F3F29F00C94161451110C94C7140C949C
:102640001C140E94A41468F39923B1F3552391F349
:10265000951B550BBB27AA2762177307840738F011
:102660009F5F5F4F220F331F441FAA1FA9F335D06E
:102670000E2E3AF0E0E832D091505040E695001C22
:10268000CAF72BD0FE2F29D0660F771F881FBB1FDC
:10269000261737074807AB07B0E809F0BB0B802DBA
:1026A000BF01FF2793585F4F3AF09E3F510578F0E6
:1026B0000C9416140C94C7145F3FE4F3983ED4F3C3
:1026C000869577956795B795F7959F5FC9F7880FBA
:1026D000911D9695879597F90895E1E0660F771F0C
:1026E000881FBB1F621773078407BA0720F0621B9D
:1026F000730B840BBA0BEE1F88F7E09508950E94C8
:1027000086136894B1110C94C71408950E94AC14F8
:1027100088F09F5798F0B92F9927B751B0F0E1F0A2
:10272000660F771F881F991F1AF0BA95C9F714C052
:10273000B13091F00E94C614B1E008950C94C61413
:10274000672F782F8827B85F39F0B93FCCF386958B
:1027500077956795B395D9F73EF4909580957095E8
:1027600061957F4F8F4F9F4F0895E89409C097FB65
:102770003EF490958095709561957F4F8F4F9F4F58
:102780009923A9F0F92F96E9BB279395F69587959C
:1027900077956795B795F111F8CFFAF4BB0F11F45F
:1027A00060FF1BC06F5F7F4F8F4F9F4F16C0882306
:1027B00011F096E911C0772321F09EE8872F762F3C
:1027C00005C0662371F096E8862F70E060E02AF07D
:1027D0009A95660F771F881FDAF7880F9695879569
:1027E00097F90895990F0008550FAA0BE0E8FEEF3E
:1027F00016161706E807F907C0F012161306E407C5
:10280000F50798F0621B730B840B950B39F40A26BD
:1028100061F0232B242B252B21F408950A2609F49B
:10282000A140A6958FEF811D811D089597F99F679F
:1028300080E870E060E008959FEF80EC0895DF93FA
:10284000CF931F930F93FF92EF92DF927B018C0146
:10285000689406C0DA2EEF010E94ED14FE01E894A0
:10286000A5912591359145915591A6F3EF010E94CF
:102870003C12FE019701A801DA9469F7DF90EF900E
:10288000FF900F911F91CF91DF91089500240A943A
:102890001616170618060906089500240A9412163B
:1028A00013061406050608950C941C140E94AC141B
:1028B000D8F3E894E0E0BB279F57F0F02AED3FE023
:1028C00049EC06C0EE0FBB0F661F771F881F28F06C
:1028D000B23A62077307840728F0B25A620B730B8F
:1028E000840BE3959A9572F7803830F49A95BB0F74
:1028F000661F771F881FD2F790480C94A015092EE9
:102900000394000C11F4882352F0BB0F40F4BF2B4A
:1029100011F460FF04C06F5F7F4F8F4F9F4F08958A
:10292000EF93E0FF07C0A2EA2AED3FE049EC5FEB3E
:102930000E943C120E947F140F90039401FC905857
:10294000E5E9F0E00C94B31557FD9058440F551F7E
:1029500059F05F3F71F04795880F97FB991F61F021
:102960009F3F79F087950895121613061406551F98
:10297000F2CF4695F1DF08C0161617061806991F04
:10298000F1CF86957105610508940895E894BB27F9
:1029900066277727CB0197F908950E94F21308F470
:1029A0008FEF08959B01AC0160E070E080E89FE349
:1029B0000C940D130E94ED140C947F140E94461485
:1029C00038F00E944D1420F0952311F00C94161449
:1029D0000C941C1411240C94C7140E94A41470F3BA
:1029E000959FC1F3950F50E0551F629FF001729FB4
:1029F000BB27F00DB11D639FAA27F00DB11DAA1FC3
:102A0000649F6627B00DA11D661F829F2227B00D0F
:102A1000A11D621F739FB00DA11D621F839FA00D9A
:102A2000611D221F749F3327A00D611D231F849FEA
:102A3000600D211D822F762F6A2F11249F57504041
:102A40009AF0F1F088234AF0EE0FFF1FBB1F661FBC
:102A5000771F881F91505040A9F79E3F510580F085
:102A60000C9416140C94C7145F3FE4F3983ED4F30F
:102A7000869577956795B795F795E7959F5FC1F729
:102A8000FE2B880F911D9695879597F908959F9332
:102A90000E9456140F9007FCEE5F0C94901419F4EA
:102AA00016F40C941C140C949E150E94AC14B8F3EC
:102AB0009923C9F3B6F39F57550B87FF0E94AC15B6
:102AC0000024A0E640EA900180585695979528F496
:102AD000805C660F771F881F20F02617370748078E
:102AE00030F4621B730B840B202931294A2BA695E5
:102AF00017940794202531254A2758F7660F771F2A
:102B0000881F20F026173707480730F4620B730B35
:102B1000840B200D311D411DA09581F7B901842F33
:102B20009158880F9695879508959B01AC010C9458
:102B3000DA140E94F213880B990B08959F3F31F02D
:102B4000915020F4879577956795B795880F911DDB
:102B50009695879597F9089591505040660F771F85
:102B6000881FD2F708959F938F937F936F93FF935E
:102B7000EF939B01AC010E94DA14EF91FF910E9448
:102B80001F142F913F914F915F910C94DA14DB0148
:102B90008F939F930E941316BF91AF91A29F800DB8
:102BA000911DA39F900DB29F900D1124089597FB46
:102BB000072E16F4009407D077FD09D00E94261640
:102BC00007FC05D03EF4909581959F4F0895709530
:102BD00061957F4F0895A1E21A2EAA1BBB1BFD0130
:102BE0000DC0AA1FBB1FEE1FFF1FA217B307E407EC
:102BF000F50720F0A21BB30BE40BF50B661F771F44
:102C0000881F991F1A9469F7609570958095909523
:102C10009B01AC01BD01CF010895EE0FFF1F059090
:102C2000F491E02D09940E943A16A59F900DB49F4F
:102C3000900DA49F800D911D11240895B7FF0C9451
:102C400013160E941316821B930B0895AA1BBB1B1D
:102C500051E107C0AA1FBB1FA617B70710F0A61B9C
:102C6000B70B881F991F5A95A9F780959095BC01BD
:102C7000CD010895A29FB001B39FC001A39F700D25
:102C8000811D1124911DB29F700D811D1124911D74
:102C90000895FB01DC018D91019080190110D9F399
:102CA000990B0895FB01DC0101900D920020E1F7E2
:102CB0000895FB01DC014150504048F001900D9215
:102CC0000020C9F701C01D9241505040E0F708951F
:102CD000AEE0B0E0EEE6F6E10C9417190D891E891E
:102CE00086E08C831A8309838FEF9FE79E838D8311
:102CF000AE01475E5F4F6F89788DCE0101960E94CD
:102D00008B162F813885020F131FF80110822E9623
:102D1000E4E00C943319ABE0B0E0E1E9F6E10C94A7
:102D200009197C013B018A01FC011782168283810B
:102D300081FFC8C1CE0101965C01F7019381F301C7
:102D400093FD859193FF81913F01882309F453C13D
:102D5000853239F493FD859193FF81913F0185324E
:102D600029F4B70190E00E947B18E7CF912C212C29
:102D7000312CFFE1F31538F08B3211F190F48032F1
:102D800009F1833229F137FC3CC020ED280F2A30AD
:102D900050F536FE20C08AE0989E200D1124922E18
:102DA00006C08D3291F0803371F7689430F8F301EA
:102DB00093FD859193FF81913F018111DACF21C06D
:102DC000689431F8689432F8F2CF689433F8EFCF12
:102DD000689434F8ECCFEAE02E9E200D1124222EC8
:102DE000689435F8E4CF8E3229F436FC04C1689437
:102DF00036F8DDCF8C3619F4689437F8D8CF88369A
:102E0000B1F2982F9F7D95549330E0F08336A1F175
:102E10008337C1F1833509F063C02801F2E04F0E1A
:102E2000511CF801C080D180692D70E036FC02C0D1
:102E30006FEF7FEFC6010E9465184C01689437F868
:102E400082010AC00C5F1F4FFFE3F983882483943B
:102E5000912C6501E89437F833FE2DC0522C811473
:102E6000910471F5552009F468CFB70180E290E034
:102E70000E947B185A94F6CFF801808189830E5FF7
:102E80001F4FE4CF2801F2E04F0E511CF801C08023
:102E9000D180692D70E036FC02C06FEF7FEFC60174
:102EA0000E9470184C018201D5CFB70180E290E0FA
:102EB0000E947B182A942814190409F0B0F7CECF89
:102EC000F60137FC859137FE81916F01B70190E0E3
:102ED0000E947B1851105A94F1E08F1A9108BFCFCD
:102EE000843619F0893609F077C0F80137FE6BC0D7
:102EF00060817181828193810C5F1F4FF32DFF767A
:102F00003F2E97FF09C090958095709561957F4FF2
:102F10008F4F9F4F689437F82AE030E0A5010E9458
:102F2000AB18C82ECA188C2C432C36FE0CC0E89463
:102F300040F8C91440F434FE05C032FC03C0F32D40
:102F4000FE7E4F2E892C44FE95C0FE01EC0DF11D36
:102F50008081803309F087C0242D297E422E842D64
:102F60008870582E43FC95C040FE8FC09C2C821464
:102F700018F42C0C922C981844FE91C0B70180E3F1
:102F800090E00E947B1842FE09C088E790E041FE75
:102F900002C088E590E0B7010E947B18C91408F4CC
:102FA0008AC0CA94D12C9FEFC91AD90ACA0CDB1C5B
:102FB000F60182916F01B70190E00E947B18AC147A
:102FC000BD04B1F74FCF60817181072E000C880BD3
:102FD000990B0E5F1F4F92CFD32CE894D4F82AE0C0
:102FE00030E0853739F1232D297FD22E8F3601F13C
:102FF00048F48835A9F0F701868197812B96E2E1A4
:103000000C942519803749F08837A9F7D4FE02C0FF
:103010006894D2F820E130E00DC06894D4F8F6CF7F
:1030200034FE03C0822F8660D82E20E132E002C039
:1030300028E030E0F801D7FE0FC060817181828105
:1030400093810C5F1F4FA5010E94AB18C82ECA18B0
:103050003D2CE89437F867CF6081718190E080E083
:103060000E5F1F4FF0CF42FC02C0839478CF839451
:10307000839475CF842D867809F471CFF6CFB7018C
:1030800080E290E00E947B1883948214C0F3512C5C
:1030900073CF522C5818821408F46ECFF8CF842DB9
:1030A000867809F47BCF8BE241FE80E247FC8DE21B
:1030B000B70190E071CFB70180E390E00E947B18E8
:1030C0009A946CCF8FEF9FEF99CFFC0105906150E0
:1030D00070400110D8F7809590958E0F9F1F08952E
:1030E000FC016150704001900110D8F780959095D7
:1030F0008E0F9F1F08950F931F93CF93DF93182F69
:10310000092FEB018B8181FD09C01FEF0FEF812F8C
:10311000902FDF91CF911F910F91089582FF14C0DE
:103120002E813F818C819D81281739073CF4E881ED
:10313000F981CF0101969983888310838E819F81C5
:1031400001969F838E83E3CFE885F985812F0995CA
:10315000892BA1F3DACFFA01AA27283051F12031C7
:1031600081F1E8946F936E7F6E5F7F4F8F4F9F4F1B
:10317000AF4FB1E03ED0B4E03CD0670F781F891F5D
:103180009A1FA11D680F791F8A1F911DA11D6A0F2B
:10319000711D811D911DA11D20D009F468943F91DE
:1031A0002AE0269F11243019305D3193DEF6CF01DD
:1031B0000895462F4770405D4193B3E00FD0C9F7A3
:1031C000F6CF462F4F70405D4A3318F0495D31FD10
:1031D0004052419302D0A9F7EACFB4E0A695979563
:1031E000879577956795BA95C9F700976105710539
:1031F00008959B01AC010A2E069457954795379583
:103200002795BA95C9F7620F731F841F951FA01DDC
:1032100008952F923F924F925F926F927F928F927A
:103220009F92AF92BF92CF92DF92EF92FF920F9355
:103230001F93CF93DF93CDB7DEB7CA1BDB0B0FB65F
:10324000F894DEBF0FBECDBF09942A88398848881C
:103250005F846E847D848C849B84AA84B984C884B2
:10326000DF80EE80FD800C811B81AA81B981CE0FA9
:10327000D11D0FB6F894DEBF0FBECDBFED0108958E
:1032800011E0CCEAD1E004C0FE010E940D162196A7
:0A329000CD3AD107C9F7F894FFCF3B
:10329A002A2A2A2A2A2A2A2A2A2A2A2A2A2A2A2A84
:1032AA002A000000000000000000000000000000EA
:1032BA00BA01BC01C101C001C201C401C501C801F2
:1032CA00CC01CE01CF01D201DC01D601DB01DA014A
:1032DA0000000000D5023502620242039302710225
:1032EA00850200000000870335021C048603E303FD
:1032FA00FB036E030D0A004750524D4300474E52DE
:10330A004D4300475047474100474E474741002534
:10331A006C64006E616E00696E66006F7666002AE4
:10332A002A2A2000312E302E3200253032642F25F1
:10333A003032642F253032642000253032643A2539
:10334A003032643A2530326420004E004E4E450039
:10335A00454E4500455345005353450053005353CA
:0E336A00570057535700574E57004E4E57000E
:00000001FF
